{
  "contractName": "IntegrationTest",
  "abi": [
    {
      "constant": true,
      "inputs": [],
      "name": "state",
      "outputs": [
        {
          "name": "",
          "type": "uint256"
        }
      ],
      "payable": false,
      "stateMutability": "view",
      "type": "function"
    },
    {
      "anonymous": false,
      "inputs": [
        {
          "indexed": true,
          "name": "topic",
          "type": "string"
        },
        {
          "indexed": false,
          "name": "value",
          "type": "string"
        }
      ],
      "name": "SimpleEvent",
      "type": "event"
    },
    {
      "anonymous": false,
      "inputs": [
        {
          "indexed": true,
          "name": "topic",
          "type": "address"
        },
        {
          "indexed": false,
          "name": "value",
          "type": "string"
        }
      ],
      "name": "AddressEvent",
      "type": "event"
    },
    {
      "anonymous": false,
      "inputs": [
        {
          "indexed": true,
          "name": "topic",
          "type": "address"
        },
        {
          "indexed": false,
          "name": "value",
          "type": "string"
        },
        {
          "indexed": true,
          "name": "test",
          "type": "address"
        }
      ],
      "name": "MixedEvent",
      "type": "event"
    },
    {
      "anonymous": false,
      "inputs": [
        {
          "indexed": false,
          "name": "token",
          "type": "address"
        },
        {
          "indexed": false,
          "name": "value",
          "type": "uint256"
        }
      ],
      "name": "RateEvent",
      "type": "event"
    },
    {
      "anonymous": false,
      "inputs": [
        {
          "indexed": false,
          "name": "value1",
          "type": "uint256"
        }
      ],
      "name": "TestEvent",
      "type": "event"
    },
    {
      "anonymous": false,
      "inputs": [
        {
          "indexed": false,
          "name": "value1",
          "type": "uint256"
        },
        {
          "indexed": false,
          "name": "value2",
          "type": "uint256"
        }
      ],
      "name": "TestEvent",
      "type": "event"
    },
    {
      "anonymous": false,
      "inputs": [
        {
          "indexed": false,
          "name": "value1",
          "type": "uint256"
        },
        {
          "indexed": false,
          "name": "value2",
          "type": "uint256"
        },
        {
          "indexed": false,
          "name": "value3",
          "type": "uint256"
        }
      ],
      "name": "TestEvent",
      "type": "event"
    },
    {
      "constant": false,
      "inputs": [
        {
          "name": "_state",
          "type": "uint256"
        }
      ],
      "name": "setState",
      "outputs": [],
      "payable": false,
      "stateMutability": "nonpayable",
      "type": "function"
    },
    {
      "constant": false,
      "inputs": [
        {
          "components": [
            {
              "name": "token",
              "type": "address"
            },
            {
              "name": "value",
              "type": "uint256"
            }
          ],
          "name": "rates",
          "type": "tuple[]"
        }
      ],
      "name": "setRates",
      "outputs": [],
      "payable": false,
      "stateMutability": "nonpayable",
      "type": "function"
    },
    {
      "constant": false,
      "inputs": [
        {
          "components": [
            {
              "name": "token",
              "type": "address"
            },
            {
              "name": "value",
              "type": "uint256"
            }
          ],
          "name": "_rate",
          "type": "tuple"
        }
      ],
      "name": "setRate",
      "outputs": [],
      "payable": false,
      "stateMutability": "nonpayable",
      "type": "function"
    },
    {
      "constant": false,
      "inputs": [],
      "name": "getRate",
      "outputs": [
        {
          "components": [
            {
              "name": "token",
              "type": "address"
            },
            {
              "name": "value",
              "type": "uint256"
            }
          ],
          "name": "",
          "type": "tuple"
        }
      ],
      "payable": false,
      "stateMutability": "nonpayable",
      "type": "function"
    },
    {
      "constant": false,
      "inputs": [
        {
          "name": "topic",
          "type": "string"
        },
        {
          "name": "value",
          "type": "string"
        }
      ],
      "name": "emitSimpleEvent",
      "outputs": [],
      "payable": false,
      "stateMutability": "nonpayable",
      "type": "function"
    },
    {
      "constant": false,
      "inputs": [
        {
          "name": "topic",
          "type": "address"
        },
        {
          "name": "value",
          "type": "string"
        }
      ],
      "name": "emitAddressEvent",
      "outputs": [],
      "payable": false,
      "stateMutability": "nonpayable",
      "type": "function"
    },
    {
      "constant": false,
      "inputs": [
        {
          "name": "topic",
          "type": "address"
        },
        {
          "name": "value",
          "type": "string"
        },
        {
          "name": "test",
          "type": "address"
        }
      ],
      "name": "emitMixedEvent",
      "outputs": [],
      "payable": false,
      "stateMutability": "nonpayable",
      "type": "function"
    }
  ],
  "bytecode": "0x6060604052341561000f57600080fd5b610abb8061001e6000396000f30060606040526004361061008e576000357c0100000000000000000000000000000000000000000000000000000000900463ffffffff16806329dc7efe14610093578063679aefce146100b557806375e8660d146100de578063a9e966b714610100578063b710cc7c14610122578063c19d93fb14610144578063c4be9b301461016d578063d1c58fbd1461018f575b600080fd5b341561009e57600080fd5b6100b360046100ae90369061078c565b6101b1565b005b34156100c057600080fd5b6100c861024f565b6040516100d59190610918565b60405180910390f35b34156100e957600080fd5b6100fe60046100f99036906106e4565b6102c9565b005b341561010b57600080fd5b610120600461011b903690610821565b610333565b005b341561012d57600080fd5b610142600461013d90369061074b565b61033d565b005b341561014f57600080fd5b6101576103d2565b6040516101649190610933565b60405180910390f35b341561017857600080fd5b61018d60046101889036906107f8565b6103d8565b005b341561019a57600080fd5b6101af60046101aa903690610690565b610473565b005b816040518082805190602001908083835b6020831015156101e757805182526020820191506020810190506020830392506101c2565b6001836020036101000a03801982511681845116808217855250505050505090500191505060405180910390207fdf07c14ba7c542332df3cebcac73245d796909b2be2b2aed13f40d5b23136cd08260405161024391906108f6565b60405180910390a25050565b6102576104c5565b60016040805190810160405290816000820160009054906101000a900473ffffffffffffffffffffffffffffffffffffffff1673ffffffffffffffffffffffffffffffffffffffff1673ffffffffffffffffffffffffffffffffffffffff168152602001600182015481525050905090565b8073ffffffffffffffffffffffffffffffffffffffff168373ffffffffffffffffffffffffffffffffffffffff167f0f5e2a2282931e0c4b5f2319a04deb79518c3127921c3f70d2fe9306563dd1678460405161032691906108f6565b60405180910390a3505050565b8060008190555050565b60008082519150600090505b818110156103cd577ff6cc106d4ff63d31aa62a665afe317068b92fc2bda4688afe33635cfff444749838281518110151561038057fe5b9060200190602002015160000151848381518110151561039c57fe5b90602001906020020151602001516040516103b89291906108cd565b60405180910390a18080600101915050610349565b505050565b60005481565b80600160008201518160000160006101000a81548173ffffffffffffffffffffffffffffffffffffffff021916908373ffffffffffffffffffffffffffffffffffffffff160217905550602082015181600101559050507ff6cc106d4ff63d31aa62a665afe317068b92fc2bda4688afe33635cfff444749816000015182602001516040516104689291906108cd565b60405180910390a150565b8173ffffffffffffffffffffffffffffffffffffffff167f2d1926fdeec1e1c3ef245ded9ff04522b3e5e14f0a57a12efe35949d72bf661e826040516104b991906108f6565b60405180910390a25050565b6040805190810160405280600073ffffffffffffffffffffffffffffffffffffffff168152602001600081525090565b60006105018235610a04565b905092915050565b600082601f830112151561051c57600080fd5b813561052f61052a8261097b565b61094e565b9150818183526020840193506020810190508385604084028201111561055457600080fd5b60005b83811015610584578161056a88826105e4565b845260208401935060408301925050600181019050610557565b5050505092915050565b600082601f83011215156105a157600080fd5b81356105b46105af826109a3565b61094e565b915080825260208301602083018583830111156105d057600080fd5b6105db838284610a2e565b50505092915050565b6000604082840312156105f657600080fd5b610600604061094e565b90506000610610848285016104f5565b60008301525060206106248482850161067c565b60208301525092915050565b60006040828403121561064257600080fd5b61064c604061094e565b9050600061065c848285016104f5565b60008301525060206106708482850161067c565b60208301525092915050565b60006106888235610a24565b905092915050565b600080604083850312156106a357600080fd5b60006106b1858286016104f5565b925050602083013567ffffffffffffffff8111156106ce57600080fd5b6106da8582860161058e565b9150509250929050565b6000806000606084860312156106f957600080fd5b6000610707868287016104f5565b935050602084013567ffffffffffffffff81111561072457600080fd5b6107308682870161058e565b9250506040610741868287016104f5565b9150509250925092565b60006020828403121561075d57600080fd5b600082013567ffffffffffffffff81111561077757600080fd5b61078384828501610509565b91505092915050565b6000806040838503121561079f57600080fd5b600083013567ffffffffffffffff8111156107b957600080fd5b6107c58582860161058e565b925050602083013567ffffffffffffffff8111156107e257600080fd5b6107ee8582860161058e565b9150509250929050565b60006040828403121561080a57600080fd5b600061081884828501610630565b91505092915050565b60006020828403121561083357600080fd5b60006108418482850161067c565b91505092915050565b610853816109da565b82525050565b6000610864826109cf565b808452610878816020860160208601610a3d565b61088181610a70565b602085010191505092915050565b6040820160008201516108a5600085018261084a565b5060208201516108b860208501826108be565b50505050565b6108c7816109fa565b82525050565b60006040820190506108e2600083018561084a565b6108ef60208301846108be565b9392505050565b600060208201905081810360008301526109108184610859565b905092915050565b600060408201905061092d600083018461088f565b92915050565b600060208201905061094860008301846108be565b92915050565b6000604051905081810181811067ffffffffffffffff8211171561097157600080fd5b8060405250919050565b600067ffffffffffffffff82111561099257600080fd5b602082029050602081019050919050565b600067ffffffffffffffff8211156109ba57600080fd5b601f19601f8301169050602081019050919050565b600081519050919050565b600073ffffffffffffffffffffffffffffffffffffffff82169050919050565b6000819050919050565b600073ffffffffffffffffffffffffffffffffffffffff82169050919050565b6000819050919050565b82818337600083830152505050565b60005b83811015610a5b578082015181840152602081019050610a40565b83811115610a6a576000848401525b50505050565b6000601f19601f83011690509190505600a265627a7a723058202e5eb978853ff3a04964a501adfe17f9af6c4c33a3efebf48c413cb662b9d57a6c6578706572696d656e74616cf50037",
  "source": "pragma experimental ABIEncoderV2;\npragma solidity ^0.4.21;\n\ncontract IntegrationTest {\n    uint256 public state;\n\n    function setState(uint256 _state) public {\n        state = _state;\n    }\n\n    event SimpleEvent(string indexed topic, string value);\n    event AddressEvent(address indexed topic, string value);\n    event MixedEvent(address indexed topic, string value, address indexed test);\n    event RateEvent(address token, uint256 value);\n\n    event TestEvent(uint256 value1);\n    event TestEvent(uint256 value1, uint256 value2);\n    event TestEvent(uint256 value1, uint256 value2, uint256 value3);\n\n    struct Rate {\n        address token;\n        uint256 value;\n    }\n\n    function setRates(Rate[] rates) public {\n        uint length = rates.length;\n        for (uint i=0; i<length; i++) {\n            RateEvent(rates[i].token, rates[i].value);\n        }\n    }\n\n    Rate rate;\n\n    function setRate(Rate _rate) public {\n        rate = _rate;\n        RateEvent(_rate.token, _rate.value);\n    }\n\n    function getRate() public returns (Rate) {\n        return rate;\n    }\n\n    function emitSimpleEvent(string topic, string value) public {\n        SimpleEvent(topic, value);\n    }\n\n    function emitAddressEvent(address topic, string value) public {\n        AddressEvent(topic, value);\n    }\n\n    function emitMixedEvent(address topic, string value, address test) public {\n        MixedEvent(topic, value, test);\n    }\n}",
  "sourcePath": "/home/quadro/Projects/scalether/test/truffle/contracts/IntegrationTest.sol",
  "compiler": {
    "name": "solc",
    "version": "0.4.21+commit.dfe3193c.Emscripten.clang"
  },
  "schemaVersion": "2.0.0",
  "updatedAt": "2018-04-18T07:57:12.237Z"
}