{
  "contractName": "IntegrationTest",
  "abi": [
    {
      "constant": true,
      "inputs": [],
      "name": "state",
      "outputs": [
        {
          "name": "",
          "type": "uint256"
        }
      ],
      "payable": false,
      "stateMutability": "view",
      "type": "function"
    },
    {
      "anonymous": false,
      "inputs": [
        {
          "indexed": true,
          "name": "topic",
          "type": "string"
        },
        {
          "indexed": false,
          "name": "value",
          "type": "string"
        }
      ],
      "name": "SimpleEvent",
      "type": "event"
    },
    {
      "anonymous": false,
      "inputs": [
        {
          "indexed": true,
          "name": "topic",
          "type": "address"
        },
        {
          "indexed": false,
          "name": "value",
          "type": "string"
        }
      ],
      "name": "AddressEvent",
      "type": "event"
    },
    {
      "anonymous": false,
      "inputs": [
        {
          "indexed": true,
          "name": "topic",
          "type": "address"
        },
        {
          "indexed": false,
          "name": "value",
          "type": "string"
        },
        {
          "indexed": true,
          "name": "test",
          "type": "address"
        }
      ],
      "name": "MixedEvent",
      "type": "event"
    },
    {
      "anonymous": false,
      "inputs": [
        {
          "indexed": false,
          "name": "token",
          "type": "address"
        },
        {
          "indexed": false,
          "name": "value",
          "type": "uint256"
        }
      ],
      "name": "RateEvent",
      "type": "event"
    },
    {
      "anonymous": false,
      "inputs": [
        {
          "indexed": false,
          "name": "str",
          "type": "string"
        },
        {
          "indexed": false,
          "name": "value",
          "type": "uint256"
        }
      ],
      "name": "StringEvent",
      "type": "event"
    },
    {
      "anonymous": false,
      "inputs": [
        {
          "indexed": false,
          "name": "value1",
          "type": "uint256"
        }
      ],
      "name": "TestEvent",
      "type": "event"
    },
    {
      "anonymous": false,
      "inputs": [
        {
          "indexed": false,
          "name": "value1",
          "type": "uint256"
        },
        {
          "indexed": false,
          "name": "value2",
          "type": "uint256"
        }
      ],
      "name": "TestEvent",
      "type": "event"
    },
    {
      "anonymous": false,
      "inputs": [
        {
          "indexed": false,
          "name": "value1",
          "type": "uint256"
        },
        {
          "indexed": false,
          "name": "value2",
          "type": "uint256"
        },
        {
          "indexed": false,
          "name": "value3",
          "type": "uint256"
        }
      ],
      "name": "TestEvent",
      "type": "event"
    },
    {
      "constant": false,
      "inputs": [
        {
          "name": "_state",
          "type": "uint256"
        }
      ],
      "name": "setState",
      "outputs": [],
      "payable": false,
      "stateMutability": "nonpayable",
      "type": "function"
    },
    {
      "constant": false,
      "inputs": [
        {
          "components": [
            {
              "name": "str",
              "type": "string"
            },
            {
              "name": "value",
              "type": "uint256"
            }
          ],
          "name": "structs",
          "type": "tuple[]"
        }
      ],
      "name": "checkStructsWithString",
      "outputs": [],
      "payable": false,
      "stateMutability": "nonpayable",
      "type": "function"
    },
    {
      "constant": false,
      "inputs": [
        {
          "components": [
            {
              "name": "token",
              "type": "address"
            },
            {
              "name": "value",
              "type": "uint256"
            }
          ],
          "name": "rates",
          "type": "tuple[]"
        }
      ],
      "name": "setRates",
      "outputs": [],
      "payable": false,
      "stateMutability": "nonpayable",
      "type": "function"
    },
    {
      "constant": false,
      "inputs": [
        {
          "components": [
            {
              "name": "token",
              "type": "address"
            },
            {
              "name": "value",
              "type": "uint256"
            }
          ],
          "name": "_rate",
          "type": "tuple"
        }
      ],
      "name": "setRate",
      "outputs": [],
      "payable": false,
      "stateMutability": "nonpayable",
      "type": "function"
    },
    {
      "constant": false,
      "inputs": [],
      "name": "getRate",
      "outputs": [
        {
          "components": [
            {
              "name": "token",
              "type": "address"
            },
            {
              "name": "value",
              "type": "uint256"
            }
          ],
          "name": "",
          "type": "tuple"
        }
      ],
      "payable": false,
      "stateMutability": "nonpayable",
      "type": "function"
    },
    {
      "constant": false,
      "inputs": [
        {
          "name": "topic",
          "type": "string"
        },
        {
          "name": "value",
          "type": "string"
        }
      ],
      "name": "emitSimpleEvent",
      "outputs": [],
      "payable": false,
      "stateMutability": "nonpayable",
      "type": "function"
    },
    {
      "constant": false,
      "inputs": [
        {
          "name": "topic",
          "type": "address"
        },
        {
          "name": "value",
          "type": "string"
        }
      ],
      "name": "emitAddressEvent",
      "outputs": [],
      "payable": false,
      "stateMutability": "nonpayable",
      "type": "function"
    },
    {
      "constant": false,
      "inputs": [
        {
          "name": "topic",
          "type": "address"
        },
        {
          "name": "value",
          "type": "string"
        },
        {
          "name": "test",
          "type": "address"
        }
      ],
      "name": "emitMixedEvent",
      "outputs": [],
      "payable": false,
      "stateMutability": "nonpayable",
      "type": "function"
    }
  ],
  "bytecode": "0x608060405234801561001057600080fd5b50610de8806100206000396000f300608060405260043610610099576000357c0100000000000000000000000000000000000000000000000000000000900463ffffffff16806329dc7efe1461009e5780633cb7bce8146100c7578063679aefce146100f057806375e8660d1461011b578063a9e966b714610144578063b710cc7c1461016d578063c19d93fb14610196578063c4be9b30146101c1578063d1c58fbd146101ea575b600080fd5b3480156100aa57600080fd5b506100c560048036036100c091908101906109f4565b610213565b005b3480156100d357600080fd5b506100ee60048036036100e991908101906109b3565b6102b1565b005b3480156100fc57600080fd5b50610105610346565b6040516101129190610be6565b60405180910390f35b34801561012757600080fd5b50610142600480360361013d919081019061090b565b6103c0565b005b34801561015057600080fd5b5061016b60048036036101669190810190610a89565b61042a565b005b34801561017957600080fd5b50610194600480360361018f9190810190610972565b610434565b005b3480156101a257600080fd5b506101ab6104c9565b6040516101b89190610c01565b60405180910390f35b3480156101cd57600080fd5b506101e860048036036101e39190810190610a60565b6104cf565b005b3480156101f657600080fd5b50610211600480360361020c91908101906108b7565b61056a565b005b816040518082805190602001908083835b6020831015156102495780518252602082019150602081019050602083039250610224565b6001836020036101000a03801982511681845116808217855250505050505090500191505060405180910390207fdf07c14ba7c542332df3cebcac73245d796909b2be2b2aed13f40d5b23136cd0826040516102a59190610b94565b60405180910390a25050565b60008082519150600090505b81811015610341577f6fc10800b7deda6aea9a2a89968fd690847169903420807806184ae95e93693383828151811015156102f457fe5b9060200190602002015160000151848381518110151561031057fe5b906020019060200201516020015160405161032c929190610bb6565b60405180910390a180806001019150506102bd565b505050565b61034e6105bc565b60016040805190810160405290816000820160009054906101000a900473ffffffffffffffffffffffffffffffffffffffff1673ffffffffffffffffffffffffffffffffffffffff1673ffffffffffffffffffffffffffffffffffffffff168152602001600182015481525050905090565b8073ffffffffffffffffffffffffffffffffffffffff168373ffffffffffffffffffffffffffffffffffffffff167f0f5e2a2282931e0c4b5f2319a04deb79518c3127921c3f70d2fe9306563dd1678460405161041d9190610b94565b60405180910390a3505050565b8060008190555050565b60008082519150600090505b818110156104c4577ff6cc106d4ff63d31aa62a665afe317068b92fc2bda4688afe33635cfff444749838281518110151561047757fe5b9060200190602002015160000151848381518110151561049357fe5b90602001906020020151602001516040516104af929190610b6b565b60405180910390a18080600101915050610440565b505050565b60005481565b80600160008201518160000160006101000a81548173ffffffffffffffffffffffffffffffffffffffff021916908373ffffffffffffffffffffffffffffffffffffffff160217905550602082015181600101559050507ff6cc106d4ff63d31aa62a665afe317068b92fc2bda4688afe33635cfff4447498160000151826020015160405161055f929190610b6b565b60405180910390a150565b8173ffffffffffffffffffffffffffffffffffffffff167f2d1926fdeec1e1c3ef245ded9ff04522b3e5e14f0a57a12efe35949d72bf661e826040516105b09190610b94565b60405180910390a25050565b6040805190810160405280600073ffffffffffffffffffffffffffffffffffffffff168152602001600081525090565b60006105f88235610d31565b905092915050565b600082601f830112151561061357600080fd5b813561062661062182610c49565b610c1c565b9150818183526020840193506020810190508385604084028201111561064b57600080fd5b60005b8381101561067b578161066188826107a7565b84526020840193506040830192505060018101905061064e565b5050505092915050565b600082601f830112151561069857600080fd5b81356106ab6106a682610c71565b610c1c565b9150818183526020840193506020810190508360005b838110156106f157813586016106d7888261083f565b8452602084019350602083019250506001810190506106c1565b5050505092915050565b600082601f830112151561070e57600080fd5b813561072161071c82610c99565b610c1c565b9150808252602083016020830185838301111561073d57600080fd5b610748838284610d5b565b50505092915050565b600082601f830112151561076457600080fd5b813561077761077282610cc5565b610c1c565b9150808252602083016020830185838301111561079357600080fd5b61079e838284610d5b565b50505092915050565b6000604082840312156107b957600080fd5b6107c36040610c1c565b905060006107d3848285016105ec565b60008301525060206107e7848285016108a3565b60208301525092915050565b60006040828403121561080557600080fd5b61080f6040610c1c565b9050600061081f848285016105ec565b6000830152506020610833848285016108a3565b60208301525092915050565b60006040828403121561085157600080fd5b61085b6040610c1c565b9050600082013567ffffffffffffffff81111561087757600080fd5b610883848285016106fb565b6000830152506020610897848285016108a3565b60208301525092915050565b60006108af8235610d51565b905092915050565b600080604083850312156108ca57600080fd5b60006108d8858286016105ec565b925050602083013567ffffffffffffffff8111156108f557600080fd5b61090185828601610751565b9150509250929050565b60008060006060848603121561092057600080fd5b600061092e868287016105ec565b935050602084013567ffffffffffffffff81111561094b57600080fd5b61095786828701610751565b9250506040610968868287016105ec565b9150509250925092565b60006020828403121561098457600080fd5b600082013567ffffffffffffffff81111561099e57600080fd5b6109aa84828501610600565b91505092915050565b6000602082840312156109c557600080fd5b600082013567ffffffffffffffff8111156109df57600080fd5b6109eb84828501610685565b91505092915050565b60008060408385031215610a0757600080fd5b600083013567ffffffffffffffff811115610a2157600080fd5b610a2d85828601610751565b925050602083013567ffffffffffffffff811115610a4a57600080fd5b610a5685828601610751565b9150509250929050565b600060408284031215610a7257600080fd5b6000610a80848285016107f3565b91505092915050565b600060208284031215610a9b57600080fd5b6000610aa9848285016108a3565b91505092915050565b610abb81610d07565b82525050565b6000610acc82610cfc565b808452610ae0816020860160208601610d6a565b610ae981610d9d565b602085010191505092915050565b6000610b0282610cf1565b808452610b16816020860160208601610d6a565b610b1f81610d9d565b602085010191505092915050565b604082016000820151610b436000850182610ab2565b506020820151610b566020850182610b5c565b50505050565b610b6581610d27565b82525050565b6000604082019050610b806000830185610ab2565b610b8d6020830184610b5c565b9392505050565b60006020820190508181036000830152610bae8184610ac1565b905092915050565b60006040820190508181036000830152610bd08185610af7565b9050610bdf6020830184610b5c565b9392505050565b6000604082019050610bfb6000830184610b2d565b92915050565b6000602082019050610c166000830184610b5c565b92915050565b6000604051905081810181811067ffffffffffffffff82111715610c3f57600080fd5b8060405250919050565b600067ffffffffffffffff821115610c6057600080fd5b602082029050602081019050919050565b600067ffffffffffffffff821115610c8857600080fd5b602082029050602081019050919050565b600067ffffffffffffffff821115610cb057600080fd5b601f19601f8301169050602081019050919050565b600067ffffffffffffffff821115610cdc57600080fd5b601f19601f8301169050602081019050919050565b600081519050919050565b600081519050919050565b600073ffffffffffffffffffffffffffffffffffffffff82169050919050565b6000819050919050565b600073ffffffffffffffffffffffffffffffffffffffff82169050919050565b6000819050919050565b82818337600083830152505050565b60005b83811015610d88578082015181840152602081019050610d6d565b83811115610d97576000848401525b50505050565b6000601f19601f83011690509190505600a265627a7a72305820dbf9dc9c37366591ad3e46bb3b2152b1795e8cf566a8201478208b2ace6dc3146c6578706572696d656e74616cf50037",
  "source": "pragma experimental ABIEncoderV2;\npragma solidity ^0.4.21;\n\ncontract IntegrationTest {\n    uint256 public state;\n\n    function setState(uint256 _state) public {\n        state = _state;\n    }\n\n    event SimpleEvent(string indexed topic, string value);\n    event AddressEvent(address indexed topic, string value);\n    event MixedEvent(address indexed topic, string value, address indexed test);\n    event RateEvent(address token, uint256 value);\n    event StringEvent(string str, uint256 value);\n\n    event TestEvent(uint256 value1);\n    event TestEvent(uint256 value1, uint256 value2);\n    event TestEvent(uint256 value1, uint256 value2, uint256 value3);\n\n    struct Rate {\n        address token;\n        uint256 value;\n    }\n\n    struct StructWithString {\n        string str;\n        uint256 value;\n    }\n\n    function checkStructsWithString(StructWithString[] structs) public {\n        uint length = structs.length;\n        for (uint i=0; i<length; i++) {\n            emit StringEvent(structs[i].str, structs[i].value);\n        }\n    }\n\n    function setRates(Rate[] rates) public {\n        uint length = rates.length;\n        for (uint i=0; i<length; i++) {\n            emit RateEvent(rates[i].token, rates[i].value);\n        }\n    }\n\n    Rate rate;\n\n    function setRate(Rate _rate) public {\n        rate = _rate;\n        emit RateEvent(_rate.token, _rate.value);\n    }\n\n    function getRate() public returns (Rate) {\n        return rate;\n    }\n\n    function emitSimpleEvent(string topic, string value) public {\n        SimpleEvent(topic, value);\n    }\n\n    function emitAddressEvent(address topic, string value) public {\n        AddressEvent(topic, value);\n    }\n\n    function emitMixedEvent(address topic, string value, address test) public {\n        MixedEvent(topic, value, test);\n    }\n}",
  "sourcePath": "/home/quadro/Projects/scalether/test/truffle/contracts/IntegrationTest.sol",
  "compiler": {
    "name": "solc",
    "version": "0.4.23+commit.124ca40d.Emscripten.clang"
  },
  "schemaVersion": "2.0.0",
  "updatedAt": "2018-04-24T07:04:45.696Z"
}